:10368000000000317A38CDA236119236CD4B37CDBD
:103690005D3748656C6C6F2C20576F726C64210D20
:1036A0000A00F5C5D5E50E0011BB36CD40000E0071
:1036B00011CA36CD4000E1D1C1F1C91637C5360176
:1036C00000000022373A43493A003B37D436020023
:1036D000000043373A434F3A000E01113B37CD40CB
:1036E000000E01111637CD4000C9CD12F8C9C5D55D
:1036F0000E03111637CD40003A2037B7CAF0363ADC
:103700002437FE0ACAF036FE60FA1337FE7BF21346
:0637100037D620D1C1C92B
:0837180024370100203722379D
:10372600F5C5D579E67F3245370E04113B37CD40D6
:0537360000D1C1F1C942
:06373D004537010043378F
:10374700CD0FF8C9F5C51AB7CA5A374FCD26371363
:10375700C34D37C1F1C9217A38227A38117A380E28
:0537670009CD4000C97E
:0036800149
